{
  "_format": "hh-sol-artifact-1",
  "contractName": "Lock",
  "sourceName": "contracts/Lock.sol",
  "abi": [
    {
      "inputs": [],
      "stateMutability": "nonpayable",
      "type": "constructor"
    },
    {
      "anonymous": false,
      "inputs": [
        {
          "indexed": true,
          "internalType": "address",
          "name": "oldLicensor",
          "type": "address"
        },
        {
          "indexed": true,
          "internalType": "address",
          "name": "newLicensor",
          "type": "address"
        }
      ],
      "name": "LicensorUpdated",
      "type": "event"
    },
    {
      "anonymous": false,
      "inputs": [
        {
          "indexed": true,
          "internalType": "address",
          "name": "from",
          "type": "address"
        },
        {
          "indexed": false,
          "internalType": "uint256",
          "name": "amount",
          "type": "uint256"
        }
      ],
      "name": "PaymentReceived",
      "type": "event"
    },
    {
      "inputs": [],
      "name": "getBalance",
      "outputs": [
        {
          "internalType": "uint256",
          "name": "",
          "type": "uint256"
        }
      ],
      "stateMutability": "view",
      "type": "function"
    },
    {
      "inputs": [],
      "name": "licensor",
      "outputs": [
        {
          "internalType": "address",
          "name": "",
          "type": "address"
        }
      ],
      "stateMutability": "view",
      "type": "function"
    },
    {
      "inputs": [
        {
          "internalType": "address",
          "name": "newLicensor",
          "type": "address"
        }
      ],
      "name": "updateLicensor",
      "outputs": [],
      "stateMutability": "nonpayable",
      "type": "function"
    },
    {
      "inputs": [],
      "name": "withdrawFunds",
      "outputs": [],
      "stateMutability": "nonpayable",
      "type": "function"
    },
    {
      "stateMutability": "payable",
      "type": "receive"
    }
  ],
  "bytecode": "0x608060405234801561001057600080fd5b50336000806101000a81548173ffffffffffffffffffffffffffffffffffffffff021916908373ffffffffffffffffffffffffffffffffffffffff1602179055506107a9806100606000396000f3fe6080604052600436106100435760003560e01c80630144f9891461012b57806312065fe01461015657806324600fc3146101815780632cbf952d1461019857610126565b366101265760008054906101000a900473ffffffffffffffffffffffffffffffffffffffff1673ffffffffffffffffffffffffffffffffffffffff163373ffffffffffffffffffffffffffffffffffffffff16036100d6576040517f08c379a00000000000000000000000000000000000000000000000000000000081526004016100cd906104fb565b60405180910390fd5b3373ffffffffffffffffffffffffffffffffffffffff167f6ef95f06320e7a25a04a175ca677b7052bdd97131872c2192525a629f51be7703460405161011c9190610534565b60405180910390a2005b600080fd5b34801561013757600080fd5b506101406101c1565b60405161014d9190610590565b60405180910390f35b34801561016257600080fd5b5061016b6101e5565b6040516101789190610534565b60405180910390f35b34801561018d57600080fd5b506101966101ed565b005b3480156101a457600080fd5b506101bf60048036038101906101ba91906105dc565b6102e4565b005b60008054906101000a900473ffffffffffffffffffffffffffffffffffffffff1681565b600047905090565b60008054906101000a900473ffffffffffffffffffffffffffffffffffffffff1673ffffffffffffffffffffffffffffffffffffffff163373ffffffffffffffffffffffffffffffffffffffff161461027b576040517f08c379a000000000000000000000000000000000000000000000000000000000815260040161027290610655565b60405180910390fd5b60008054906101000a900473ffffffffffffffffffffffffffffffffffffffff1673ffffffffffffffffffffffffffffffffffffffff166108fc479081150290604051600060405180830381858888f193505050501580156102e1573d6000803e3d6000fd5b50565b60008054906101000a900473ffffffffffffffffffffffffffffffffffffffff1673ffffffffffffffffffffffffffffffffffffffff163373ffffffffffffffffffffffffffffffffffffffff1614610372576040517f08c379a0000000000000000000000000000000000000000000000000000000008152600401610369906106e7565b60405180910390fd5b600073ffffffffffffffffffffffffffffffffffffffff168173ffffffffffffffffffffffffffffffffffffffff16036103e1576040517f08c379a00000000000000000000000000000000000000000000000000000000081526004016103d890610753565b60405180910390fd5b8073ffffffffffffffffffffffffffffffffffffffff1660008054906101000a900473ffffffffffffffffffffffffffffffffffffffff1673ffffffffffffffffffffffffffffffffffffffff167f58142f7e042e6f7e7e770f935a1df39694bb8ea41f279cbe2a02020b87504b5660405160405180910390a3806000806101000a81548173ffffffffffffffffffffffffffffffffffffffff021916908373ffffffffffffffffffffffffffffffffffffffff16021790555050565b600082825260208201905092915050565b7f4c6963656e736f722063616e6e6f742070617920697473656c66000000000000600082015250565b60006104e5601a8361049e565b91506104f0826104af565b602082019050919050565b60006020820190508181036000830152610514816104d8565b9050919050565b6000819050919050565b61052e8161051b565b82525050565b60006020820190506105496000830184610525565b92915050565b600073ffffffffffffffffffffffffffffffffffffffff82169050919050565b600061057a8261054f565b9050919050565b61058a8161056f565b82525050565b60006020820190506105a56000830184610581565b92915050565b600080fd5b6105b98161056f565b81146105c457600080fd5b50565b6000813590506105d6816105b0565b92915050565b6000602082840312156105f2576105f16105ab565b5b6000610600848285016105c7565b91505092915050565b7f4f6e6c79206c6963656e736f722063616e2077697468647261772066756e6473600082015250565b600061063f60208361049e565b915061064a82610609565b602082019050919050565b6000602082019050818103600083015261066e81610632565b9050919050565b7f4f6e6c79206c6963656e736f722063616e20757064617465206c6963656e736f60008201527f7200000000000000000000000000000000000000000000000000000000000000602082015250565b60006106d160218361049e565b91506106dc82610675565b604082019050919050565b60006020820190508181036000830152610700816106c4565b9050919050565b7f496e76616c696420616464726573730000000000000000000000000000000000600082015250565b600061073d600f8361049e565b915061074882610707565b602082019050919050565b6000602082019050818103600083015261076c81610730565b905091905056fea2646970667358221220cd27670e48405b934e7c9cb8018f9b151c6ffe38c895f7aed89f35d65e9fb0bf64736f6c63430008130033",
  "linkReferences": {},
  "deployedLinkReferences": {}
}